:100000000C9474000C9495000C9495000C9495003D
:100010000C9495000C9495000C9495000C9495000C
:100020000C9495000C9495000C9495000C949500FC
:100030000C9495000C9495000C9495000C949500EC
:100040000C9495000C9495000C9495000C949500DC
:100050000C9495000C9495000C9495000C949500CC
:100060000C9495000C9498030C9495000C949500B6
:100070000C9495000C9495000C9495000C949500AC
:100080000C9495000C9495000C9495000C9495009C
:100090000C9495000C9495000C9495000C9495008C
:1000A0000C9495000C9495000C9495000C9495007C
:1000B0000C9495000C9495000C9495000C9495006C
:1000C0000C9495000C9495000C9495000C9495005C
:1000D0000C9495000C9495000C9495000C9495004C
:1000E0000C9495000C94C50311241FBECFEFD1E2F0
:1000F000DEBFCDBF00E00CBF12E0A0E0B2E0EAE955
:10010000F6E100E00BBF02C007900D92A038B107E6
:10011000D9F722E0A0E8B2E001C01D92AE3DB207DF
:10012000E1F70E94DC050C944B0B0C940000F9994C
:1001300004C084E192E00C944B0882E292E09F9329
:100140008F930E9437080F900F90F999FECF84E1AA
:1001500092E00C944B08EF92FF920F931F93CF9372
:10016000DF938C01EB017B01E40EF51E6E157F051C
:1001700060F4F999FECFCE010E94350BF80181930E
:100180008F012196EC16FD06A1F7DF91CF911F910B
:100190000F91FF90EF900895EF92FF920F931F93AE
:1001A000CF93DF938C01EB017B01E40EF51E6E15FE
:1001B0007F0560F4F999FECFF80161918F01CE01BE
:1001C0000E943D0B2196CE15DF05A0F3DF91CF9164
:1001D0001F910F91FF90EF90089589EA809380001E
:1001E00089E08093810083E88093B00081E0809370
:1001F000B100279A269A259A249A0895CF93DF93DF
:1002000022E030E03093B7022093B6021092B90298
:100210001092B802FC014281442399F14A3089F1DD
:100220004D3079F14093950243E050E05093B7028E
:100230004093B60241E050E05093B9024093B802B7
:10024000DC011396E6E9F2E049EA52E02559324032
:100250009D919923B1F09A30A1F09D3091F0919346
:10026000C9018E0F9F1F9093B7028093B602CF01F2
:10027000855992409093B9028093B8024E175F0758
:1002800039F785E992E09093D3028093D20280916E
:100290008A0290918B020197C1F0C5E9D2E0CE01AC
:1002A00085599240F999FECF69910E943D0BF2E089
:1002B000C93ADF07A1F7109281021092800281E013
:1002C00090E090938B0280938A02DF91CF91089502
:1002D000EF92FF920F931F93CF93DF93E091D2029F
:1002E000F091D30224E1DF011D922A95E9F70091F4
:1002F000D2021091D302EC017C01B4E1EB0EF11CAF
:100300008E159F0560F4F999FECFF80161918F0178
:10031000CE010E943D0B2196CE15DF05A0F3DF91A3
:10032000CF911F910F91FF90EF90089522E030E060
:100330003093B7022093B6021092B9021092B8021D
:10034000FC014281442399F14A3089F14D3079F121
:100350004093950243E050E05093B7024093B602B9
:1003600041E050E05093B9024093B802DC0113968B
:10037000E6E9F2E049EA52E0255932409D9199239D
:10038000B1F09A30A1F09D3091F09193C9018E0F98
:100390009F1F9093B7028093B602CF018559924078
:1003A0009093B9028093B8024E175F0739F785E939
:1003B00092E00895EF92FF920F931F93CF93DF93F4
:1003C000EA01823309F492C008F453C08333C1F0C8
:1003D000843379F4613309F4E4C0623309F47CC1F5
:1003E000633309F47FC1643309F48FC1653309F4C1
:1003F0003BC1DF91CF911F910F91FF90EF90089536
:10040000613309F4ADC0623309F459C1633309F4AF
:1004100076C1643309F483C1653359F7909186023C
:1004200080918702E091D202F091D30224E1DF01B2
:100430001D922A95E9F70091D2021091D302C92F9B
:10044000D82F7E01B4E1EB0EF11CCE15DF0560F470
:10045000F999FECFF80161918F01CE010E943D0B09
:100460002196CE15DF05A0F3109291021092900212
:10047000C0CF813309F0BDCF613309F4D4C06233FA
:1004800009F42DC1633309F437C1643309F44AC157
:10049000653309F0AECF9091820280918302E091A2
:1004A000D202F091D30224E1DF011D922A95E9F7EF
:1004B0000091D2021091D302C92FD82F7E01B4E14E
:1004C000EB0EF11CCE15DF0560F4F999FECFF801B3
:1004D00061918F01CE010E943D0B2196CE15DF0563
:1004E000A0F310928D0210928C0283CF613309F435
:1004F00079C0623309F4EDC0633309F403C1643396
:1005000009F413C1653309F074CF9091840280918E
:100510008502E091D202F091D30224E1DF011D9225
:100520002A95E9F70091D2021091D302C92FD82F52
:100530007E01B4E1EB0EF11CCE15DF0560F4F999F4
:10054000FECFF80161918F01CE010E943D0B2196F3
:10055000CE15DF05A0F310928F0210928E0249CFC4
:100560008091900290919102019709F442CF0CE39F
:1005700010E0F999FECF6991C8010E943D0B0F5F11
:100580001F4F00351105A9F78CE390E09093870287
:100590008093860281E090E0909391028093900294
:1005A00028CF8091920290919302019709F421CF74
:1005B00000E510E0F999FECF6991C8010E943D0B5A
:1005C0000F5F1F4F04361105A9F780E590E0909367
:1005D00089028093880281E090E090939302809357
:1005E000920207CF80918E0290918F02019709F4B9
:1005F00000CF08E210E0F999FECF6991C8010E948E
:100600003D0B0F5F1F4F0C331105A9F788E290E0F7
:10061000909385028093840281E090E090938F0212
:1006200080938E02E6CE80918C0290918D0201978C
:1006300009F4DFCE04E110E0F999FECF6991C80119
:100640000E943D0B0F5F1F4F08321105A9F784E18F
:1006500090E0909383028093820281E090E09093F7
:100660008D0280938C02C5CE909188028091890280
:10067000E091D202F091D30224E1DF011D922A958C
:10068000E9F70091D2021091D302C92FD82F7E0131
:10069000B4E1EB0EF11CCE15DF0560F4F999FECF45
:1006A000F80161918F01CE010E943D0B2196CE157C
:1006B000DF05A0F310929302109292029ACE88E383
:1006C00092E0DF91CF911F910F91FF90EF900C94EA
:1006D000270486E392E0F5CF8AE392E0F2CF84E349
:1006E00092E0EFCF8AE392E0DF91CF911F910F91DB
:1006F000FF90EF900C94660484E392E0F5CF88E3DA
:1007000092E0F2CF86E392E0EFCF8AE392E0DF91CE
:10071000CF911F910F91FF90EF900C94A50488E367
:1007200092E0F5CF84E392E0F2CF86E392E0EFCF60
:100730001F920F920FB60F9211240BB60F922F93A8
:100740003F934F935F936F937F938F939F93AF9359
:10075000BF93EF93FF938EEB92E00E94F20381E050
:100760008093BC02FF91EF91BF91AF919F918F91C8
:100770007F916F915F914F913F912F910F900BBEA1
:100780000F900FBE0F901F9018958A3049F09091EE
:10079000C00095FFFCCF8093C60080E090E00895F4
:1007A0009091C00095FFFCCF9DE09093C600EFCFE5
:1007B0001092C50083E38093C40086E08093C2005A
:1007C00088E98093C10008959091C00095FFFCCF07
:1007D0008093C60008958091C00087FFFCCF809170
:1007E000C6000895FC019091C00097FFFCCF909146
:1007F000C6009193992329F09A3011F09D3099F712
:1008000011929E2F981B892F0895FC01208122238D
:1008100051F031969091C00095FFFCCF2093C60017
:1008200021912111F7CF0895089580E092E09093EF
:10083000DB028093DA021092C50083E38093C40048
:1008400086E08093C20088E98093C1000895FC018E
:100850008081813379F08233A9F0833311F18433BD
:10086000C9F08CE392E09F938F930E9437080F901A
:100870000F90089580918C008F3FD1F080918C0073
:100880000C94F40480918A008F3FA9F080918A0033
:100890000C942E058091B3008F3F81F48093B300B8
:1008A0000895809188008F3F69F4809388000895AF
:1008B00080938C00089580938A0008958091B300FE
:1008C0000C94A205809188000C946805FC0180813D
:1008D000813379F08233A1F0833301F18433B9F0AD
:1008E0008CE392E09F938F930E9437080F900F90B4
:1008F000089580918C00811118C010928C00089589
:1009000080918A00811115C010928A00089580910B
:10091000B300811112C01092B30008958091880035
:1009200081110FC010928800089580918C000C9462
:10093000110580918A000C944B058091B3000C94B2
:10094000BF05809188000C948505CF93DF93EC015F
:1009500080E692E00E944B08DF93CF930E94370815
:1009600088810F900F90813321F18233C9F0833356
:1009700071F0843319F0DF91CF9108958091B30025
:10098000882361F11092B300DF91CF910895809197
:10099000880081111FC08FEF809388008881E9CF84
:1009A00080918A00811112C08FEF80938A00888124
:1009B000DECF80918C00811105C08FEF80938C0079
:1009C0008881D3CF10928C008881CFCF10928A007B
:1009D0008881CDCF109288008881CBCF8FEF809314
:1009E000B300DF91CF91089590918C00482F50E093
:1009F0004B5A5F4F892F90E08417950789F08FE35A
:100A00009CE90197F1F700C0000090918C009F5F76
:100A100090938C0020918C0030E02417350779F7F3
:100A2000089590918C00482F50E045555109892F29
:100A300090E08417950789F08FE39CE90197F1F71F
:100A400000C0000090918C00915090938C002091F8
:100A50008C0030E02417350779F7089590918A00CB
:100A6000482F50E04B5A5F4F892F90E0841795072D
:100A700089F08FE39CE90197F1F700C000009091A5
:100A80008A009F5F90938A0020918A0030E02417AB
:100A9000350779F7089590918A00482F50E0455521
:100AA0005109892F90E08417950789F08FE39CE91D
:100AB0000197F1F700C0000090918A009150909347
:100AC0008A0020918A0030E02417350779F70895CD
:100AD00090918800482F50E04B5A5F4F892F90E04B
:100AE0008417950789F08FE39CE90197F1F700C01F
:100AF0000000909188009F5F90938800209188006B
:100B000030E02417350779F7089590918800482F31
:100B100050E045555109892F90E08417950789F0D9
:100B20008FE39CE90197F1F700C0000090918800E5
:100B30009150909388002091880030E02417350769
:100B400079F708959091B300482F50E04B5A5F4FCA
:100B5000892F90E08417950789F08FE39CE901972E
:100B6000F1F700C000009091B3009F5F9093B30035
:100B70002091B30030E02417350779F7089590915C
:100B8000B300482F50E045555109892F90E0841754
:100B9000950789F08FE39CE90197F1F700C0000009
:100BA0009091B30091509093B3002091B30030E046
:100BB0002417350779F7089584E690E00E940F071F
:100BC0009093BB028093BA02F8940E94D8030E94CB
:100BD000ED00789485E9C82E82E0D82E94E1592E54
:100BE00022E0E22EF12C66246394712CE701C559B2
:100BF000D2408091BC028823E1F38091BE028093B1
:100C0000BD028091BF02809394028091BD02803327
:100C100069F18091BD02803309F4C8C080919402CB
:100C2000813309F48AC0AFEDBEE21197F1F700C03D
:100C30000000609194028091BD024091D2025091D7
:100C4000D3020E94DA011092BC028091D2029091EC
:100C5000D302FC0101900020E9F73197AF01481B56
:100C6000590B60E070E00E943008C3CF809194027D
:100C7000803379F680918A0290918B02892B49F614
:100C8000F092B702E092B6021092B9021092B80246
:100C90008091C002882349F18A3039F18D3029F1E1
:100CA00080939502A1ECB2E0E6E9F2E041E050E089
:100CB00023E030E00FC08A3081F08D3071F08193F5
:100CC0009E012E0F3F1FAF014559524082E0E93A85
:100CD000F80719F08D918111EECF3093B702209370
:100CE000B6025093B9024093B802D092D302C09298
:100CF000D20280918A0290918B02019709F48ECFE3
:100D000005E912E0C80185599240F999FECFD80152
:100D10006D918D010E943D0BB2E0093A1B0791F7DE
:100D2000109281021092800270928B0260928A026D
:100D300080919402813309F076CFF092B702E0926D
:100D4000B6021092B9021092B8028091C0028823B4
:100D500041F18A3031F18D3021F180939502A1EC7F
:100D6000B2E0E6E9F2E041E050E023E030E08D91CE
:100D7000882379F08A3069F08D3059F081939E0193
:100D80002E0F3F1FAF014559524082E0E93AF80764
:100D900071F73093B7022093B6025093B902409393
:100DA000B802D092D302C092D2023DCF8091940279
:100DB000813309F033CF80918A0290918B020197A1
:100DC00009F02CCF9091800280918102E091D202B3
:100DD000F091D302DF01252D1D922A95E9F70091AC
:100DE000D2021091D302892E982E540184E1A80ECC
:100DF000B11C8A149B0470F4F999FECFD8016D914F
:100E00008D01C4010E943D0BBFEF8B1A9B0A8A140F
:100E10009B0490F310928B0210928A02FFCE0F93E4
:100E20001F93CF93DF938230910510F482E090E01E
:100E3000E091D602F091D70220E030E0A0E0B0E0EF
:100E4000309719F140815181028113814817590768
:100E5000C8F08417950769F4109731F012960C9337
:100E6000129713961C9327C00093D6021093D702B3
:100E700022C02115310519F04217530718F49A01C1
:100E8000BD01EF01DF01F801DBCF21153105F9F0DC
:100E9000281B390B2430310580F48A819B81611530
:100EA000710521F0FB019383828304C09093D702E4
:100EB0008093D602FE01329644C0FE01E20FF31F7A
:100EC0008193919322503109398328833AC020912C
:100ED000D4023091D502232B41F42091100230919D
:100EE00011023093D5022093D40220910E0230914A
:100EF0000F022115310541F42DB73EB74091120282
:100F000050911302241B350BE091D402F091D502CD
:100F1000E217F307A0F42E1B3F0B2817390778F0D0
:100F2000AC014E5F5F4F2417350748F04E0F5F1F2F
:100F30005093D5024093D4028193919302C0E0E094
:100F4000F0E0CF01DF91CF911F910F910895CF93E2
:100F5000DF93009709F481C0FC013297138212825B
:100F6000A091D602B091D702109781F420813181EF
:100F7000820F931F2091D4023091D5022817390790
:100F800051F5F093D502E093D40267C0ED0120E063
:100F900030E0CE17DF0740F44A815B819E014115A6
:100FA0005105F1F0EA01F5CFD383C283408151812D
:100FB000840F951FC817D90759F488819981840F28
:100FC000951F0296918380838A819B81938382837C
:100FD0002115310529F4F093D702E093D6023DC0E4
:100FE000E901FB83EA8349915991C40FD51FEC179E
:100FF000FD0761F480819181840F951F0296E901BC
:1010000099838883828193819B838A83E0E0F0E0E7
:1010100012968D919C911397009719F0FD01DC01B8
:10102000F7CF8D919C9111979D012E5F3F4F820FBD
:10103000931F2091D4023091D5022817390769F403
:10104000309729F41092D7021092D60202C0138270
:101050001282B093D502A093D402DF91CF9108956C
:10106000DC0101C06D9341505040E0F70895CF93EB
:10107000DF93CDB7DEB7AE014A5F5F4FFA016191F2
:101080007191AF018091DA029091DB020E947B089E
:10109000DF91CF9108950F931F93CF93DF93E0914A
:1010A000DA02F091DB02238121FF1BC08C01D0E02A
:1010B000C0E0F80181918F016091DA027091DB024A
:1010C000DB011896ED91FC911997882331F0199561
:1010D000892B79F3DFEFCFEFECCF8AE01995892BDD
:1010E00019F08FEF9FEF02C08D2F9C2FDF91CF91D2
:1010F0001F910F9108952F923F924F925F926F929E
:101100007F928F929F92AF92BF92CF92DF92EF9297
:10111000FF920F931F93CF93DF93CDB7DEB72B973B
:101120000FB6F894DEBF0FBECDBF6C017B018A0104
:10113000FC0117821682838181FFCCC1CE0101960A
:101140003C01F6019381F70193FD859193FF819115
:101150007F01882309F4BAC1853239F493FD859162
:1011600093FF81917F01853229F4B60190E00E94BE
:101170009B0AE7CF912C212C312CFFE1F315D8F0FD
:101180008B3279F038F4803279F08332A1F4232D58
:1011900020611DC08D3261F0803369F4232D216000
:1011A00016C0832D8260382EE32DE4603E2E2AC0C7
:1011B000F32DF8601DC037FC2DC020ED280F2A301C
:1011C00040F08E32B9F436FC81C1232D2064322EDA
:1011D00019C036FE06C08AE0989E200D1124922E7A
:1011E00011C0EAE02E9E200D1124222EF32DF06274
:1011F0003F2E08C08C3621F4832D8068382E02C023
:10120000883641F4F70193FD859193FF81917F0129
:101210008111B3CF982F9F7D9554933028F40C5FA4
:101220001F4F9FE399830DC0833631F0833771F0F0
:10123000833509F059C021C0F801808189830E5F90
:101240001F4F88248394912C530113C02801F2E08E
:101250004F0E511CF801A080B18036FE03C0692DED
:1012600070E002C06FEF7FEFC5010E94900A4C0151
:101270008201F32DFF773F2E16C0280122E0420E97
:10128000511CF801A080B18036FE03C0692D70E0CA
:1012900002C06FEF7FEFC5010E94850A4C01F32D5C
:1012A000F0683F2E820133FC1BC0822D90E088162F
:1012B0009906B0F4B60180E290E00E949B0A2A945D
:1012C000F4CFF50137FC859137FE81915F01B601BE
:1012D00090E00E949B0A21102A9421E0821A910832
:1012E0008114910471F7E8C0843611F0893641F514
:1012F000F80137FE07C060817181828193810C5FA4
:101300001F4F08C060817181072E000C880B990B5C
:101310000E5F1F4FF32DFF763F2E97FF09C090956C
:101320008095709561957F4F8F4F9F4FF0683F2E4E
:101330002AE030E0A3010E94D70A882E861845C013
:10134000853731F4232D2F7EB22E2AE030E025C0E0
:10135000932D997FB92E8F36C1F018F4883579F026
:10136000B5C0803719F0883721F0B0C0E92FE061AF
:10137000BE2EB4FE0DC0FB2DF460BF2E09C034FE9E
:101380000AC0292F2660B22E06C028E030E005C032
:1013900020E130E002C020E132E0F801B7FE07C0F2
:1013A00060817181828193810C5F1F4F06C06081D3
:1013B000718180E090E00E5F1F4FA3010E94D70A69
:1013C000882E8618FB2DFF773F2E36FE0DC0232D6D
:1013D0002E7FA22E891458F434FE0BC032FC09C0B3
:1013E000832D8E7EA82E05C0B82CA32C03C0B82C4C
:1013F00001C0B92CA4FE0FC0FE01E80DF11D8081D3
:10140000803321F49A2D997EA92E09C0A2FE06C030
:10141000B394B39404C08A2D867809F0B394A3FCE6
:1014200011C0A0FE06C0B21488F4280C922C9B18A0
:101430000EC0B21460F4B60180E290E00E949B0AF4
:10144000B394F7CFB21418F42B1802C0982C212CA7
:10145000A4FE10C0B60180E390E00E949B0AA2FEA9
:1014600017C0A1FC03C088E790E002C088E590E0C7
:10147000B6010CC08A2D867859F0A1FE02C08BE21D
:1014800001C080E2A7FC8DE2B60190E00E949B0AB9
:10149000891438F4B60180E390E00E949B0A9A9484
:1014A000F7CF8A94F301E80DF11D8081B60190E039
:1014B0000E949B0A8110F5CF222009F442CEB6018A
:1014C00080E290E00E949B0A2A94F6CFF601868182
:1014D000978102C08FEF9FEF2B960FB6F894DEBF77
:1014E0000FBECDBFDF91CF911F910F91FF90EF9075
:1014F000DF90CF90BF90AF909F908F907F906F9034
:101500005F904F903F902F900895FC01059061509F
:1015100070400110D8F7809590958E0F9F1F089509
:10152000FC016150704001900110D8F780959095B2
:101530008E0F9F1F08950F931F93CF93DF93FB018F
:10154000238121FD03C08FEF9FEF2CC022FF16C027
:1015500046815781248135814217530744F4A08185
:10156000B1819D012F5F3F4F318320838C93268172
:1015700037812F5F3F4F3783268314C08B01EC01E7
:10158000FB010084F185E02D1995892BE1F6D80146
:1015900016968D919C911797019617969C938E9312
:1015A0001697CE01DF91CF911F910F910895FA0107
:1015B000AA27283051F1203181F1E8946F936E7F92
:1015C0006E5F7F4F8F4F9F4FAF4FB1E03ED0B4E083
:1015D0003CD0670F781F891F9A1FA11D680F791FC4
:1015E0008A1F911DA11D6A0F711D811D911DA11DD5
:1015F00020D009F468943F912AE0269F11243019E5
:10160000305D3193DEF6CF010895462F4770405D7F
:101610004193B3E00FD0C9F7F6CF462F4F70405D2E
:101620004A3318F0495D31FD4052419302D0A9F789
:10163000EACFB4E0A6959795879577956795BA9583
:10164000C9F700976105710508959B01AC010A2E49
:1016500006945795479537952795BA95C9F7620F20
:10166000731F841F951FA01D0895F999FECF92BD89
:1016700081BDF89A992780B50895262FF999FECF54
:101680001FBA92BD81BD20BD0FB6F894FA9AF99A9F
:0A1690000FBE01960895F894FFCFF5
:10169A000000000200000000C50300000000000076
:1016AA00DE022000454550524F4D2070726F6E7415
:1016BA006100454550524F4D206E6F6E2070726F1B
:1016CA006E74610031003200330034004E6573736A
:1016DA00756E6F207377697463682076616C6964CC
:1016EA006F2070657220696C2064696D6D65720087
:1016FA0056616C6F7265206C65642C20736F6E6F17
:10170A0020696E206C65645F6F6E5F6F66660000AD
:00000001FF
